{
  "contractName": "SubmitContract",
  "abi": [
    {
      "constant": true,
      "inputs": [
        {
          "name": "name",
          "type": "bytes32"
        }
      ],
      "name": "getHashList",
      "outputs": [
        {
          "name": "",
          "type": "bytes32[]"
        }
      ],
      "payable": false,
      "stateMutability": "view",
      "type": "function"
    },
    {
      "constant": false,
      "inputs": [
        {
          "name": "name",
          "type": "bytes32"
        },
        {
          "name": "hashValue",
          "type": "bytes32"
        }
      ],
      "name": "submit",
      "outputs": [
        {
          "name": "",
          "type": "uint256"
        }
      ],
      "payable": false,
      "stateMutability": "nonpayable",
      "type": "function"
    }
  ],
  "bytecode": "0x6060604052341561000f57600080fd5b61041d8061001e6000396000f30060606040526004361061004c576000357c0100000000000000000000000000000000000000000000000000000000900463ffffffff16806320d930f214610051578063d26ff86e146100cd575b600080fd5b341561005c57600080fd5b610076600480803560001916906020019091905050610115565b6040518080602001828103825283818151815260200191508051906020019060200280838360005b838110156100b957808201518184015260208101905061009e565b505050509050019250505060405180910390f35b34156100d857600080fd5b6100ff60048080356000191690602001909190803560001916906020019091905050610228565b6040518082815260200191505060405180910390f35b61011d61038c565b61012561038c565b6000806000808660001916600019168152602001908152602001600020805490501415151561015057fe5b60008085600019166000191681526020019081526020016000208054905060405180591061017b5750595b90808252806020026020018201604052509150600090505b60008085600019166000191681526020019081526020016000208054905081101561021e576000808560001916600019168152602001908152602001600020818154811015156101df57fe5b90600052602060002090015482828151811015156101f957fe5b9060200190602002019060001916908160001916815250508080600101915050610193565b8192505050919050565b6000806000806000866000191660001916815260200190815260200160002080549050141561029d576000808560001916600019168152602001908152602001600020805480600101828161027d91906103a0565b916000526020600020900160008590919091509060001916905550610365565b600090505b60008085600019166000191681526020019081526020016000208054905081101561031d5782600019166000808660001916600019168152602001908152602001600020828154811015156102f357fe5b906000526020600020900154600019161415151561031057600080fd5b80806001019150506102a2565b6000808560001916600019168152602001908152602001600020805480600101828161034991906103a0565b9160005260206000209001600085909190915090600019169055505b60008085600019166000191681526020019081526020016000208054905091505092915050565b602060405190810160405280600081525090565b8154818355818115116103c7578183600052602060002091820191016103c691906103cc565b5b505050565b6103ee91905b808211156103ea5760008160009055506001016103d2565b5090565b905600a165627a7a723058203a380a92aafe8649a15724fcaf0a170066fb564831e821fde8ff5d5af16c12710029",
  "source": "pragma solidity ^0.4.17;\n\ncontract SubmitContract\n{\n\n    mapping(bytes32=>bytes32[]) projects;\n    \n    \n    function submit(bytes32 name, bytes32 hashValue) public returns(uint)\n    {\n        if(projects[name].length == 0)\n        {\n            projects[name].push(hashValue);\n        }\n        else\n        {\n            for(uint i=0; i<projects[name].length; i++)\n            {\n                require(projects[name][i] != hashValue);\n            }\n            projects[name].push(hashValue);\n        }\n        \n        return projects[name].length;\n    }\n    \n    function getHashList(bytes32 name) public view returns(bytes32[])\n    {\n        assert(projects[name].length != 0);\n        bytes32[] memory hashlist = new bytes32[](projects[name].length);\n        for(uint i=0; i< projects[name].length; i++)\n        {\n            hashlist[i] =  projects[name][i];\n        }\n        return hashlist;\n    }\n    \n}\n",
  "sourcePath": "/Users/samuel/code/Dapp/client/contracts/SubmitContract.sol",
  "compiler": {
    "name": "solc",
    "version": "0.4.18+commit.9cf6e910.Emscripten.clang"
  },
  "schemaVersion": "1.0.1",
  "updatedAt": "2018-04-26T13:03:08.203Z"
}