{
  "contractName": "SubmitContract",
  "abi": [
    {
      "constant": true,
      "inputs": [
        {
          "name": "name",
          "type": "bytes32"
        }
      ],
      "name": "getHashList",
      "outputs": [
        {
          "name": "",
          "type": "bytes32[]"
        }
      ],
      "payable": false,
      "stateMutability": "view",
      "type": "function"
    },
    {
      "constant": false,
      "inputs": [
        {
          "name": "name",
          "type": "bytes32"
        }
      ],
      "name": "delPrj",
      "outputs": [],
      "payable": false,
      "stateMutability": "nonpayable",
      "type": "function"
    },
    {
      "constant": false,
      "inputs": [
        {
          "name": "name",
          "type": "bytes32"
        },
        {
          "name": "hashValue",
          "type": "bytes32"
        }
      ],
      "name": "submit",
      "outputs": [
        {
          "name": "",
          "type": "bytes32"
        }
      ],
      "payable": false,
      "stateMutability": "nonpayable",
      "type": "function"
    }
  ],
  "bytecode": "0x6060604052341561000f57600080fd5b6104818061001e6000396000f300606060405260043610610057576000357c0100000000000000000000000000000000000000000000000000000000900463ffffffff16806320d930f21461005c578063b8aea30b146100d8578063d26ff86e146100ff575b600080fd5b341561006757600080fd5b61008160048080356000191690602001909190505061014f565b6040518080602001828103825283818151815260200191508051906020019060200280838360005b838110156100c45780820151818401526020810190506100a9565b505050509050019250505060405180910390f35b34156100e357600080fd5b6100fd600480803560001916906020019091905050610262565b005b341561010a57600080fd5b6101316004808035600019169060200190919080356000191690602001909190505061028b565b60405180826000191660001916815260200191505060405180910390f35b6101576103cf565b61015f6103cf565b6000806000808660001916600019168152602001908152602001600020805490501415151561018a57fe5b6000808560001916600019168152602001908152602001600020805490506040518059106101b55750595b90808252806020026020018201604052509150600090505b6000808560001916600019168152602001908152602001600020805490508110156102585760008085600019166000191681526020019081526020016000208181548110151561021957fe5b906000526020600020900154828281518110151561023357fe5b90602001906020020190600019169081600019168152505080806001019150506101cd565b8192505050919050565b6000808260001916600019168152602001908152602001600020600061028891906103e3565b50565b6000806000806000866000191660001916815260200190815260200160002080549050141561030057600080856000191660001916815260200190815260200160002080548060010182816102e09190610404565b9160005260206000209001600085909190915090600019169055506103c5565b600090505b60008085600019166000191681526020019081526020016000208054905081101561037d57826000191660008086600019166000191681526020019081526020016000208281548110151561035657fe5b906000526020600020900154600019161415151561037057fe5b8080600101915050610305565b600080856000191660001916815260200190815260200160002080548060010182816103a99190610404565b9160005260206000209001600085909190915090600019169055505b8291505092915050565b602060405190810160405280600081525090565b50805460008255906000526020600020908101906104019190610430565b50565b81548183558181151161042b5781836000526020600020918201910161042a9190610430565b5b505050565b61045291905b8082111561044e576000816000905550600101610436565b5090565b905600a165627a7a7230582048f9a564dc8ae889b7db899e3498e6aeca1457605b7d842922f83db758fe13160029",
  "source": "pragma solidity ^0.4.17;\n\ncontract SubmitContract\n{\n\n    mapping(bytes32=>bytes32[]) projects;\n    \n    \n    function submit(bytes32 name, bytes32 hashValue) public returns(bytes32)\n    {\n        if(projects[name].length == 0)\n        {\n            projects[name].push(hashValue);\n        }\n        else\n        {\n            for(uint i=0; i<projects[name].length; i++)\n            {\n                assert(projects[name][i] != hashValue);\n            }\n            projects[name].push(hashValue);\n        }\n\t\t\t\t\n\t\t\t\treturn hashValue;\n    }\n    \n    function delPrj(bytes32 name) public\n    {\n        delete projects[name];\n    }\n    \n    function getHashList(bytes32 name) public view returns(bytes32[])\n    {\n        assert(projects[name].length != 0);\n        bytes32[] memory hashlist = new bytes32[](projects[name].length);\n        for(uint i=0; i< projects[name].length; i++)\n        {\n            hashlist[i] =  projects[name][i];\n        }\n        return hashlist;\n    }\n    \n}\n",
  "sourcePath": "/Users/samuel/code/Dapp/client/contracts/SubmitContract.sol",
  "compiler": {
    "name": "solc",
    "version": "0.4.18+commit.9cf6e910.Emscripten.clang"
  },
  "schemaVersion": "1.0.1",
  "updatedAt": "2018-01-21T02:34:10.198Z"
}