{
  "contractName": "SubmitContract",
  "abi": [
    {
      "constant": true,
      "inputs": [
        {
          "name": "name",
          "type": "bytes32"
        }
      ],
      "name": "getHashList",
      "outputs": [
        {
          "name": "",
          "type": "bytes32[]"
        }
      ],
      "payable": false,
      "stateMutability": "view",
      "type": "function"
    },
    {
      "constant": false,
      "inputs": [
        {
          "name": "name",
          "type": "bytes32"
        }
      ],
      "name": "delPrj",
      "outputs": [],
      "payable": false,
      "stateMutability": "nonpayable",
      "type": "function"
    },
    {
      "constant": false,
      "inputs": [
        {
          "name": "name",
          "type": "bytes32"
        },
        {
          "name": "hashValue",
          "type": "bytes32"
        }
      ],
      "name": "submit",
      "outputs": [],
      "payable": false,
      "stateMutability": "nonpayable",
      "type": "function"
    }
  ],
  "bytecode": "0x6060604052341561000f57600080fd5b61045e8061001e6000396000f300606060405260043610610057576000357c0100000000000000000000000000000000000000000000000000000000900463ffffffff16806320d930f21461005c578063b8aea30b146100d8578063d26ff86e146100ff575b600080fd5b341561006757600080fd5b610081600480803560001916906020019091905050610133565b6040518080602001828103825283818151815260200191508051906020019060200280838360005b838110156100c45780820151818401526020810190506100a9565b505050509050019250505060405180910390f35b34156100e357600080fd5b6100fd600480803560001916906020019091905050610246565b005b341561010a57600080fd5b6101316004808035600019169060200190919080356000191690602001909190505061026f565b005b61013b6103ac565b6101436103ac565b6000806000808660001916600019168152602001908152602001600020805490501415151561016e57fe5b6000808560001916600019168152602001908152602001600020805490506040518059106101995750595b90808252806020026020018201604052509150600090505b60008085600019166000191681526020019081526020016000208054905081101561023c576000808560001916600019168152602001908152602001600020818154811015156101fd57fe5b906000526020600020900154828281518110151561021757fe5b90602001906020020190600019169081600019168152505080806001019150506101b1565b8192505050919050565b6000808260001916600019168152602001908152602001600020600061026c91906103c0565b50565b60008060008085600019166000191681526020019081526020016000208054905014156102e257600080846000191660001916815260200190815260200160002080548060010182816102c291906103e1565b9160005260206000209001600084909190915090600019169055506103a7565b600090505b60008084600019166000191681526020019081526020016000208054905081101561035f57816000191660008085600019166000191681526020019081526020016000208281548110151561033857fe5b906000526020600020900154600019161415151561035257fe5b80806001019150506102e7565b6000808460001916600019168152602001908152602001600020805480600101828161038b91906103e1565b9160005260206000209001600084909190915090600019169055505b505050565b602060405190810160405280600081525090565b50805460008255906000526020600020908101906103de919061040d565b50565b81548183558181151161040857818360005260206000209182019101610407919061040d565b5b505050565b61042f91905b8082111561042b576000816000905550600101610413565b5090565b905600a165627a7a72305820a77fca74bfc7f5409e302fe5a0d12321ae62fcf904bd6d7865af330a12659c270029",
  "source": "pragma solidity ^0.4.17;\n\ncontract SubmitContract\n{\n\n    mapping(bytes32=>bytes32[]) projects;\n    \n    \n    function submit(bytes32 name, bytes32 hashValue) public\n    {\n        if(projects[name].length == 0)\n        {\n            projects[name].push(hashValue);\n        }\n        else\n        {\n            for(uint i=0; i<projects[name].length; i++)\n            {\n                assert(projects[name][i] != hashValue);\n            }\n            projects[name].push(hashValue);\n        }\n    }\n    \n    function delPrj(bytes32 name) public\n    {\n        delete projects[name];\n    }\n    \n    function getHashList(bytes32 name) public view returns(bytes32[])\n    {\n        assert(projects[name].length != 0);\n        bytes32[] memory hashlist = new bytes32[](projects[name].length);\n        for(uint i=0; i< projects[name].length; i++)\n        {\n            hashlist[i] =  projects[name][i];\n        }\n        return hashlist;\n    }\n    \n}",
  "sourcePath": "/Users/samuel/code/Dapp/contracts/SubmitContract.sol",
  "compiler": {
    "name": "solc",
    "version": "0.4.18+commit.9cf6e910.Emscripten.clang"
  },
  "schemaVersion": "1.0.1",
  "updatedAt": "2018-01-19T01:09:37.833Z"
}